:020000020000FC
:040000000C947A00E2
:1000E4004F766572666C6F77206F636375726564B3
:1000F400BFEFBDBFB1E2BEBF882799276627772728
:10010400AA27B0EFB0930A01BFEFB7B988B9BFEF20
:10011400B0BBB1B9BB27B1BBB2B908E3DED0F7D0ED
:1001240012D108E3DAD0F3D005D108E3D6D0EFD06A
:1001340008E3D3D0ECD008E0D0D0E9D001E0CDD0B2
:10014400E6D006E0CAD0E3D00EE0C7D0E0D03FEE60
:10015400222730930B01BFEFBA95F1F7B091090153
:10016400BF70BF3061F031E011275B2F532319F4C6
:100174000DD00C94A9001395330F0C94B7002330C1
:1001840031F30894331F23950C94AB002330D1F042
:100194001330F9F1B12FBB0FB10FB20FB395442750
:1001A4005527660F771F460F571F660F771F660F79
:1001B400771F460F571F4B0F08F45395642F752F65
:1001C4000C944D01A03031F0A13049F0A23011F06F
:1001D4000C94F600860F971FD3F10C94F600861B3F
:1001E400970BABF10C94F60066277727BB271030EA
:1001F40021F0113031F0123041F0BDEFA1E00C9448
:100204004D01BBEFA2E00C944D01BDE0A3E00C94C2
:100214004D01203029F0213031F0BFE00C944D0124
:10022400BEE00C944D01BB2744275527660F771F6A
:10023400460F571F660F771F660F771F460F571F0E
:100244004B0F08F45395642F752F0C944D0108E35C
:1002540044D05DD078D008E340D059D06BD008E3C7
:100264003CD055D008E339D052D008E036D04FD036
:1002740001E033D04CD006E030D049D00EE02DD090
:1002840046D0E4EEF0E0A4E1059132D040D0A15094
:10029400D9F70C946D0188B90B2F005D29D037D0A4
:1002A40063D0A33011F00895089588B999230AF012
:1002B40007C0BFEF8B279B2783950DE219D027D06A
:1002C400F2E0EEE057D0A5E00191003211F010D039
:1002D4001ED0A150C9F70C946D0101BB0000169A01
:1002E40000000000000016980000000000000895BF
:1002F40001BB179A000000000000169A00000000DD
:1003040000001698000000000000179808950F934D
:10031400002700BB01BB159A0000169A00000000DC
:1003240000000FB1169807FDF7CF15980FEF00BB2B
:100334000F9108958F939F939FE08CE90197F1F7B4
:100344009F918F910895F6DFF5DFF4DFF3DFF2DF9D
:100354000895F9DFF8DFF7DFF6DFF5DF0895F9DF59
:10036400F8DFF7DFF6DF0895FADFF9DFF8DFF7DF0C
:10037400F6DF089512D0B4E04B2FB081BB2329F4EB
:10038400B0E2B1934A95C9F7B0814395B05DB1939A
:10039400B0814A95D9F7359708959F938F93B7E223
:1003A4005B2FB0E14B2F14D0B3E05B2FB8EE4B2F93
:1003B4000FD0B0E05B2FB4E64B2F0AD0B0E05B2F38
:1003C400BAE04B2F05D0808334978F919F91089585
:1003D400BB27951738F011F4841720F0841B950B74
:0803E400B395F7CFB193089522
:00000001FF
