:020000020000FC
:040000000C948400D8
:1000E4004F766572666C6F77206F636375726564B3
:1000F400496E636F727265637420457870726573BC
:1001040073696F6EBFEFBDBFB1E2BEBF8827992789
:1001140066277727AA27B0EFB0930A01BFEFB7B9D4
:1001240088B9BFEFB0BBB1B9BB27B1BBB2B908E363
:1001340009D122D13DD108E305D11ED130D108E344
:1001440001D11AD108E3FED017D108E0FBD014D1B5
:1001540001E0F8D011D106E0F5D00ED10EE0F2D0D6
:100164000BD13FEE222730930B01BFEFBA95F1F785
:10017400B0910901BF70BF3061F031E011275B2FEE
:10018400532319F40DD00C94B3001395330F0C942E
:10019400C100233031F30894331F23950C94B50028
:1001A400233059F01330E1F1CC27B12FBB0FB10F3D
:1001B400B20FB395AAD00C941D01CF3F19F0CFEF25
:1001C4000C94E5007ED0A03031F0A13049F0A2308B
:1001D40011F00C94F900860F971F43F00C94F9006A
:1001E400861B970B1BF00C94F90001C046D06627C0
:1001F4007727BB27103041F0113051F0123061F0F5
:10020400133009F001C00895BDEFA1E00C941D0165
:10021400BBEFA2E00C941D01BDE0A3E00C941D0112
:10022400203021F0213019F0BFE008950895BB2754
:100234006CD00C941D0188B90B2F005D8ED09CD01E
:10024400C8D0A33011F00895089588B999230AF00D
:1002540007C0BFEF8B279B2783950DE27ED08CD000
:10026400F2E0EEE0B9D0A5E00191003211F075D0D2
:1002740083D0A150C9F70C943D0108E363D07CD02E
:1002840097D008E35FD078D08AD008E35BD074D0ED
:1002940008E358D071D008E055D06ED001E052D0B8
:1002A4006BD006E04FD068D00EE04CD065D0E4EEC1
:1002B400F0E0A4E1059151D05FD0A150D9F70C949E
:1002C4003D0108E33FD058D073D008E33BD054D06D
:1002D40066D008E337D050D008E334D04DD008E0DE
:1002E40031D04AD001E02ED047D006E02BD044D004
:1002F4000EE028D041D0E4EFF0E0A4E105912DD048
:100304003BD0A150D9F70C943D0144275527660FE3
:10031400771FB0F0460F571F9BF0660F771F80F0D2
:10032400660F771F68F0460F571F53F04B0FBF93AC
:10033400B0E05B1F2BF0BF91642F752F0C94A301C9
:100344009CDF089501BB0000169A00000000000025
:100354001698000000000000089501BB179A0000E1
:1003640000000000169A000000000000169800002B
:1003740000000000179808950F93002700BB01BBED
:10038400159A0000169A0000000000000FB116989C
:1003940007FDF7CF15980FEF00BB0F9108958F93CA
:1003A4009F939FE08CE90197F1F79F918F910895B6
:1003B400F6DFF5DFF4DFF3DFF2DF0895F9DFF8DFCE
:1003C400F7DFF6DFF5DF0895F9DFF8DFF7DFF6DFB3
:1003D4000895FADFF9DF089512D0B4E04B2FB0810D
:1003E400BB2329F4B0E2B1934A95C9F7B081439590
:1003F400B05DB193B0814A95D9F7359708959F932D
:100404008F93B7E25B2FB0E14B2F14D0B3E05B2F97
:10041400B8EE4B2F0FD0B0E05B2FB4E64B2F0AD0D1
:10042400B0E05B2FBAE04B2F05D0808334978F91D7
:100434009F910895BB27951738F011F4841720F085
:0C044400841B950BB395F7CFB19308957E
:00000001FF
