:020000020000FC
:040000000C947200EA
:1000E4005FEF5DBF51E25EBF50EF50930A015FEFD7
:1000F40057B958B95FEF50BB51B9552751BB52B9E5
:1001040000E35BD074D08FD08ED000E356D06FD094
:1001140081D089D000E351D06AD085D000E34DD09E
:1001240066D081D008E049D062D001E046D05FD0EB
:1001340006E043D05CD00EE040D059D03FEE2227F9
:1001440030930B015FEF5A95F1F7509109015F70FD
:100154005F3061F031E01127452F432319F40DD0AE
:100164000C94A0001395330F0C94AE00233031F39C
:100174000894331F23950C94A200233049F01330C4
:1001840059F0512F550F510F520F53950C94D9001C
:100194005AE0510F0C94D900203029F0213031F06D
:1001A4005FE00C94D9005EE00C94D9005527052F2C
:1001B400005D0ED01CD048D0089501BB0000169AF3
:1001C40000000000000016980000000000000895E0
:1001D40001BB179A000000000000169A00000000FE
:1001E40000001698000000000000179808950F936F
:1001F400002700BB01BB159A0000169A00000000FE
:1002040000000FB1169807FDF7CF15980FEF00BB4C
:100214000F9108958F939F939FE08CE90197F1F7D5
:100224009F918F910895F6DFF5DFF4DFF3DFF2DFBE
:100234000895F9DFF8DFF7DFF6DFF5DF0895F9DF7A
:10024400F8DFF7DFF6DF0895FADFF9DFF8DFF7DF2D
:04025400F6DF089534
:00000001FF
