:100000000C94FA000C9422010C9422010C9422010D
:100010000C9422010C9422010C9422010C942201D4
:100020000C9422010C9422010C9461050C94D305CC
:100030000C9422010C9422010C9422010C942201B4
:100040000C9422010C9422010C9422010C942201A4
:100050000C9422010C9422010C9422010C9417059B
:100060000C9422010C9422010C9422010C94220184
:100070000C9422010C9422010C9422010C94220174
:100080000C9422010C9422010C9422010C94220164
:100090000C9422010C9422010C9422010C94220154
:1000A0000C9422010C9422010C9422018D019001E8
:1000B0007F0183018701B101B101B1019401980170
:1000C0009C01A201A601B101AC0128022D0232025D
:1000D0003C02460290029002900250025A026402D0
:1000E0006E027B02900283020000000023002600C3
:1000F00029002C002F00080B000202020100090455
:100100000000010202000005240010010524010185
:1001100001042402060524060001070581031000DE
:100120004009040100020A00000007050202400025
:10013000000705830240000004030904417264754E
:10014000696E6F204C4C430041726475696E6F207C
:1001500059756E00120100020000004041234180E9
:1001600000010102030112010002EF0201404123DC
:10017000418000010102030100000000240027006B
:100180002A002D00300000000000250028002B0070
:100190002E003100040404040403040502020202D8
:1001A0000403020202020606060606060404020210
:1001B00002040404080201104080401020408040E6
:1001C00080080204018040201002011080102040AD
:1001D00040200000000200090F0000030401000C91
:1001E000000000000000000000000000000000000F
:1001F00000000C0A11241FBECFEFDAE0DEBFCDBF36
:1002000011E0A0E0B1E0ECE0F7E102C005900D9252
:10021000AA33B107D9F721E0AAE3B1E001C01D92EA
:10022000A23BB207E1F710E0CAEFD0E004C021978B
:10023000FE010E94790BC93FD107C9F70E945508FA
:100240000C94840B0C940000FC01809161018111DD
:1002500003C08FEF9FEF08959FB7F89482E08093DB
:10026000E9002091F20030E01216130614F421E0A8
:1002700030E02115310559F0289884E6809360011B
:100280008091F10080838091F200882319F09FBF54
:10029000C90108958BE68093E800F9CF8091580159
:1002A00081110DC082E08093540184E08093550158
:1002B000109257011092560181E08093580184E515
:1002C00091E00895362F90E0FC01EE52FE4F4491EC
:1002D000FC01ED54FE4F2491FC01EC56FE4F84913D
:1002E000882309F451C04423E1F150E0FA01319729
:1002F000EF30F105B0F5EA5AFF4F0C94790B90916D
:1003000080009F7707C0909180009F7D03C09091EF
:100310008000977F9093800024C094B59F7702C09F
:1003200094B59F7D94BD1DC0909190009F7707C0AC
:10033000909190009F7D03C090919000977F909343
:1003400090000FC09091C0009F7703C09091C000B3
:100350009F7D9093C00005C09091C200977F9093BD
:10036000C200E82FF0E0EE0FFF1FEA57FE4FA59105
:10037000B4918FB7F894EC91311103C020952E23DE
:1003800001C02E2B2C938FBF0895CF93DF9390E065
:10039000FC01ED54FE4F2491FC01EC56FE4F84917C
:1003A000882361F190E0880F991FFC01E858FE4F07
:1003B000C591D491FC01EA57FE4FA591B49161110A
:1003C00009C09FB7F8948881209582238883EC9197
:1003D0002E230BC0623061F49FB7F8943881822FCE
:1003E000809583238883EC912E2B2C939FBF06C08E
:1003F0008FB7F894E8812E2B28838FBFDF91CF91A0
:1004000008951F93CF93DF93182FEB0161E00E94B3
:10041000C501209711F460E004C0CF3FD10539F445
:1004200061E0812FDF91CF911F910C946201E12F48
:10043000F0E0EE52FE4FE4914E2F50E0FA0131977A
:10044000EF30F10508F06CC0EB59FF4F0C94790BBD
:1004500084B5806884BDC7BD68C084B5806284BD32
:10046000C8BD63C080918000806880938000D09375
:100470008900C093880059C0809180008062809379
:100480008000D0938B00C0938A004FC08091800081
:10049000886080938000D0938D00C0938C0045C00D
:1004A00080919000806880939000D0939900C093D1
:1004B00098003BC080919000806280939000D09320
:1004C0009B00C0939A0031C0809190008860809317
:1004D0009000D0939D00C0939C0027C08091C000E5
:1004E00080688093C0008091C0008F7B8093C000A3
:1004F000C093CF001AC08091C00080628093C0007A
:10050000C093D00012C08091C20088608093C20066
:100510008091C2008B7F8093C200C093D20005C03F
:10052000C038D1050CF07CCF76CFDF91CF911F91F1
:1005300008953FB7F8948091500190915101A09196
:100540005201B091530126B5A89B05C02F3F19F069
:100550000196A11DB11D3FBFBA2FA92F982F882743
:10056000820F911DA11DB11DBC01CD0142E0660F9E
:10057000771F881F991F4A95D1F708958F929F92F0
:10058000AF92BF92CF92DF92EF92FF926B017C010C
:100590000E9499024B015C01C114D104E104F104F1
:1005A000F1F00E949902DC01CB0188199909AA098E
:1005B000BB09883E9340A105B10570F321E0C21A42
:1005C000D108E108F10888EE880E83E0981EA11C8E
:1005D000B11CC114D104E104F10419F7DDCFFF907F
:1005E000EF90DF90CF90BF90AF909F908F90089545
:1005F00040914501509146012091430130914401C1
:1006000042175307B4F49091E8009570E1F390918C
:10061000E80092FD19C08093F1008091450190910E
:10062000460101968F739927892B19F48EEF8093D9
:10063000E800809145019091460101969093460112
:100640008093450181E0089580E00895CF92DF9284
:10065000EF92FF920F931F93CF93DF931F92CDB72B
:10066000DEB7182F062FE42E862F880F8E5F998312
:100670000E94F80283E00E94F802F12EC12E9981B7
:10068000D92E8C2D8F19801798F4F601E7FE02C041
:10069000849101C080810E94F802182F80E00E949E
:1006A000F8028123FFEFCF1ADF0A8111EACF01C0E0
:1006B00081E00F90DF91CF911F910F91FF90EF900C
:1006C000DF90CF900895DF92EF92FF920F931F93E8
:1006D000CF93DF93D82E8A017B01E40EF51EEB0148
:1006E000CE15DF0571F0D7FE03C0FE01849101C075
:1006F00088810E94F80221968111F2CF8FEF9FEF3F
:1007000001C0C801DF91CF911F910F91FF90EF9031
:10071000DF9008950F931F93CF93DF931F92CDB770
:10072000DEB782E0898342E450E066EF70E080E863
:100730000E9463030E944E01DC0112960D911C91F0
:1007400013970115110569F0D801ED91FC91028014
:10075000F381E02DBE016F5F7F4FC801099597FFC0
:1007600007C089810F90DF91CF911F910F9108955C
:10077000F80100851185E5CF615030F02091F1003E
:10078000FC0120830196F8CF289884E680936001CD
:100790000895CF92DF92EF92FF920F931F93CF9322
:1007A000DF936C017A018B01C0E0D0E0CE15DF054C
:1007B00089F0D8016D918D01D601ED91FC910190E8
:1007C000F081E02DC6010995892B11F47E0102C04C
:1007D0002196ECCFC701DF91CF911F910F91FF9030
:1007E000EF90DF90CF9008958F929F92AF92BF923B
:1007F000CF92DF92EF92FF920F931F93CF93DF93ED
:100800005C016B018A0180910B01882309F45EC0B1
:1008100080916101882309F459C08091490180FFCA
:1008200005C08091E00082608093E000E8018AEFDB
:10083000F82E93E0E92E2FE3822E3AE3932E2097B1
:1008400009F43DC08FB7F894E092E9009091E80078
:1008500095FF06C09091F200282D291B922F01C010
:1008600090E08FBF91110AC0FA94FF2079F161E006
:1008700070E080E090E00E94BE02E1CF292F30E0DE
:10088000C217D3070CF49C2F8FB7F894E092E900BD
:100890002091E80025FF11C0292F30E0C21BD30BA7
:1008A000F601915020F041914093F100FACFC20E31
:1008B000D31E9091E80095FF13C08FBFC0CF5D9805
:1008C00084E680934A011016110644F081E090E01E
:1008D000F5019383828380E090E005C0C80103C0E6
:1008E0009092E800EACFDF91CF911F910F91FF9096
:1008F000EF90DF90CF90BF90AF909F908F90089532
:10090000CF93DF931F92CDB7DEB76983DC01ED9102
:10091000FC910280F381E02D41E050E0BE016F5F69
:100920007F4F09950F90DF91CF91089583E08093D9
:10093000E9008091F200882319F08AE38093E800AF
:100940000895CF93DF931F92CDB7DEB7FC01848566
:10095000958597FD05C02FEF3FEF358724870BC0A6
:10096000CE0101960E942401019719F4898190E03B
:1009700002C08FEF9FEF0F90DF91CF9108950F93FB
:100980001F93CF93DF931F92CDB7DEB78C01FC018D
:100990008485958597FF0EC0CE0101960E942401A3
:1009A000019719F4298130E002C02FEF3FEFF801E1
:1009B00035872487F801848595850F90DF91CF9145
:1009C0001F910F910895FC018485958597FD0BC0BB
:1009D0009FB7F89482E08093E9008091F2009FBF76
:1009E00090E0019608959FB7F89482E08093E90023
:1009F0008091F2009FBF90E00895BC01009791F0B4
:100A0000FC0101900020E9F73197AF01481B590B19
:100A1000E0916201F09163010280F381E02D82E6B2
:100A200091E0099480E090E008950E947F0B1F926E
:100A30000F920FB60F9211242F933F938F939F9392
:100A4000AF93BF9380914C0190914D01A0914E01C5
:100A5000B0914F0130914B0123E0230F2D3720F44B
:100A60000196A11DB11D05C026E8230F0296A11D08
:100A7000B11D20934B0180934C0190934D01A093A5
:100A80004E01B0934F018091500190915101A0917E
:100A90005201B09153010196A11DB11D80935001E7
:100AA00090935101A0935201B0935301BF91AF9124
:100AB0009F918F913F912F910F900FBE0F901F909C
:100AC00018951F920F920FB60F9211248F939F9338
:100AD0008091E1009091E100937F9093E10083FF8A
:100AE0000FC01092E90091E09093EB001092EC009F
:100AF00092E39093ED001092610198E09093F000E2
:100B000082FF20C093E09093E9009091F200992336
:100B100019F09AE39093E80090914A01992339F0F3
:100B200090914A01915090934A01992389F19091B3
:100B30006001992339F09091600191509093600188
:100B4000992341F184FF10C08091E2008E7E816084
:100B50008093E2008091E1008F7E8093E10080919C
:100B600049018E7E806111C080FF16C08091E20035
:100B70008E7E80618093E2008091E1008E7E809382
:100B8000E100809149018E7E81608093490104C01B
:100B90005D9ACDCF289AD6CF9F918F910F900FBE9F
:100BA0000F901F9018951F920F920FB60F9211245D
:100BB000CF92DF92EF92FF920F931F932F933F9369
:100BC0004F935F936F937F938F939F93AF93BF9355
:100BD000EF93FF93CF93DF93CDB7DEB76C97DEBF74
:100BE000CDBF1092E9008091E80083FFFAC168E070
:100BF000CE0145960E94BC0382EF8093E8008D8968
:100C000087FF05C09091E80090FFFCCF03C09EEFE6
:100C10009093E800982F907609F0C6C09E892F899E
:100C2000188D91110CC0803829F48091480180936F
:100C3000F10002C01092F1001092F10047C1422F62
:100C400050E0512B913051F4811140C14130510598
:100C500009F03CC1809148018D7F0BC0933061F455
:100C6000811134C14130510509F030C180914801F2
:100C70008260809348012AC1953041F48091E80058
:100C800080FFFCCF20682093E30020C1963009F05C
:100C90005FC0EB8CFC8C1092E90010924601109220
:100CA0004501123091F510924401109243010E94C7
:100CB0008A0399E0BE016F5F7F4FDB01E92F1D9230
:100CC000EA95E9F799831A8391E09E8390EA9887E1
:100CD0009AEF99872091450130914601275F3F4F58
:100CE0003C832B838D831092E90010924601109271
:100CF0004501F0924401E092430149E050E080E078
:100D00000E9463030E948A03E1C0F0924401E092D2
:100D100043010E944E01DC011296ED90FC90139766
:100D2000E114F10409F4C0C0D701ED91FC910480F5
:100D3000F581E02DBE016B5E7F4FC70109950097DD
:100D400019F00CF0C3C0C6C0F701E084F184E8CF0D
:100D5000973009F4BFC0983021F481E08093F1000E
:100D6000B5C0993009F0B2C0837009F0B3C0EDE1AD
:100D7000F1E081E021E036E39081992361F08093F6
:100D8000E9002093EB0091919093EC003093ED00FB
:100D90008F5F873089F78EE78093EA001092EA0030
:100DA0008F898093610192C08B8D9C8D1092E90098
:100DB00010924601109245019093440180934301A3
:100DC000898D811156C08E899D89913A59F481325D
:100DD00009F080C047E050E064E071E080E00E94EC
:100DE000630374C0913209F075C0833289F4888D31
:100DF00090E0982F88272F89822BA0E0B0E0809385
:100E0000000190930101A0930201B09303015EC021
:100E1000803269F48091E80082FFFCCF67E084E0D3
:100E200091E00E94BC038BEF8093E80006C0823201
:100E300009F04CC08F8980930B0180914701882372
:100E400019F0EEEFFAE002C0E0E0F8E08091040172
:100E500090910501A0910601B0910701803B94405B
:100E6000A105B10509F088C080910B0180FFA0C0E9
:100E700083C00E944E01DC0112960D911C911397C4
:100E80000115110539F1D801ED91FC910190F08126
:100E9000E02DBE016B5E7F4FC8010995811116C020
:100EA000F80100851185ECCF1130C1F0133091F4B9
:100EB0008F89882309F455C08230E9F440E86BE05B
:100EC00088E491E00E942603882321F08EEF80932E
:100ED000E80087C081E28093EB0083C08B8D9C8DFE
:100EE000089711F41093420180914201811136C09C
:100EF00064E571E038C0813029F440E86BE08CE3B0
:100F000091E0E0CF833031F70E944E01DC01129670
:100F1000ED90FC9013978E010F5F1F4F6801E11455
:100F2000F10479F0D701ED91FC910680F781E02D75
:100F3000B801C7010995080F111DF701E084F1847C
:100F4000EECFD8011C92F60101900020E9F731970D
:100F5000BF016C197D0940E0C601B4CF66E671E0BF
:100F600002C068E371E06115710509F4B3CFFB01BC
:100F7000449150E080E833CF0FB6F894A895809163
:100F80006000886180936000109260000FBEA89599
:100F9000EE3F2AE0F20739F08091FE0A9091FF0AB5
:100FA0009183808393CF1092FF0A1092FE0A8ECF16
:100FB000EE3F8AE0F80731F0808191819093FF0A3B
:100FC0008093FE0A87E797E7918380839BE088E11F
:100FD0000FB6F894A895809360000FBE90936000C0
:100FE00075CF6C960FB6F894DEBF0FBECDBFDF9104
:100FF000CF91FF91EF91BF91AF919F918F917F9191
:101000006F915F914F913F912F911F910F91FF90A1
:10101000EF90DF90CF900F900FBE0F901F9018951C
:10102000CF92DF92EF92FF920F931F93E82FF92F49
:1010300005C0015011092109310961F19081962300
:101040009417B9F305C0015011092109310911F1B3
:10105000908196239413F7CFC12CD12CE12CF12C45
:101060000AC08FEFC81AD80AE80AF80A0C151D053D
:101070002E053F0579F080818623841791F36C2D2E
:101080007D2D8E2D9F2D1F910F91FF90EF90DF9062
:10109000CF90089560E070E080E090E01F910F91A4
:1010A000FF90EF90DF90CF900895CF93DF93CDB76F
:1010B000DEB7A1970FB6F894DEBF0FBECDBF789410
:1010C00084B5826084BD84B5816084BD85B582604D
:1010D00085BD85B5816085BD80916E0081608093FE
:1010E0006E00109281008091810082608093810067
:1010F0008091810081608093810080918000816077
:101100008093800080919100826080939100809113
:101110009100816080939100809190008160809324
:1011200090008091C10084608093C1008091C100D3
:1011300082608093C1008091C10081608093C10072
:101140008091C30081608093C3008091C000826061
:101150008093C0008091C20081608093C200809122
:101160007A00846080937A0080917A008260809314
:101170007A0080917A00816080937A0080917A0071
:10118000806880937A001092610110924801109259
:1011900049018091D70081608093D70080EA8093D5
:1011A000D80089B5806189BD89B5826089BD09B4DF
:1011B00000FEFDCF61E070E080E090E00E94BE02A2
:1011C0008091D8008F7C80618093D8008091E0006E
:1011D000807F8093E0008091E1008E7E8093E1002B
:1011E0008DE08093E200559A209AEEEFFFE785911B
:1011F00094918B3F9C4D19F481E0809347018FEFD0
:101200009FEF90936F0180936E0161E08CE00E94EC
:10121000C50160E08BE00E94C50161E08DE00E94A5
:10122000C50123E0E22EF12C33E2C32ED12C4AE09B
:10123000242E312C412C512C9FE9692E91E0792EDE
:1012400060E08CE00E946201C7010197F1F761E064
:101250008CE00E946201C6010197F1F760E08CE02A
:101260000E946201EEEBF1E06491F3018491E82FBA
:10127000F0E0EE0FFF1FE851FF4F8591949100E4DD
:1012800012E42FE030E0462F0E941008611571052E
:101290008105910549F0DC01CB010196A11DB11D2D
:1012A000BC01CD019F7003C060E070E0CB01609392
:1012B0003E0170933F0180934001909341010E9451
:1012C000CB0A2DEC3CEC48E652E40E94210A0E9435
:1012D000930A4B015C0160933A0170933B01809348
:1012E0003C0190933D0197FF26C0E0916201F0918F
:1012F00063010190F081E02D6DE282E691E00995B5
:1013000022273327A901281939094A095B0919A29B
:101310008E010F5D1F4FCA01B901A20191010E9408
:10132000570B605DF80162938F012115310541056E
:10133000510589F715C09B01AC0119A28E010F5D03
:101340001F4FCA01B901A20191010E94570B605DB4
:10135000F80162938F01211531054105510589F787
:10136000C8010E94FD0483E291E00E94FD04809187
:101370003A0190913B01A0913C01B0913D0144970D
:10138000A105B105CCF486E291E00E94FD0483E260
:1013900091E00E94FD0460E088E00E94620160E04C
:1013A00089E00E94620160E087E00E94620160E0E3
:1013B00086E00E94620122C08BE291E00E94FD045F
:1013C00083E291E00E94FD0460E088E00E946201F7
:1013D00061E089E00E94620160E087E00E946201B2
:1013E00060E086E00E94620168EC70E08AE00E94A2
:1013F00001026AEF70E085E00E94010264E170E0A2
:1014000080E090E00E94BE0280E090E0892B09F429
:1014100017CF0E94000010CFE2E6F1E013821282A3
:1014200088EE93E0A0E0B0E084839583A683B78341
:1014300080E191E0918380838FEF9FEF9587848790
:1014400008950E94350A0C941D0B0E94160B58F04B
:101450000E940F0B40F029F45F3F29F00C94060B1B
:1014600051110C94510B0C940C0B0E942E0B68F331
:101470009923B1F3552391F3951B550BBB27AA274D
:1014800062177307840738F09F5F5F4F220F331F87
:10149000441FAA1FA9F335D00E2E3AF0E0E832D04F
:1014A00091505040E695001CCAF72BD0FE2F29D052
:1014B000660F771F881FBB1F261737074807AB0724
:1014C000B0E809F0BB0B802DBF01FF2793585F4F99
:1014D0003AF09E3F510578F00C94060B0C94510B9A
:1014E0005F3FE4F3983ED4F3869577956795B7957B
:1014F000F7959F5FC9F7880F911D9695879597F986
:101500000895E1E0660F771F881FBB1F62177307FE
:101510008407BA0720F0621B730B840BBA0BEE1F13
:1015200088F7E09508950E949A0A6894B1110C9486
:10153000510B08950E94360B88F09F5798F0B92FF1
:101540009927B751B0F0E1F0660F771F881F991FF8
:101550001AF0BA95C9F714C0B13091F00E94500B3F
:10156000B1E008950C94500B672F782F8827B85F4F
:1015700039F0B93FCCF3869577956795B395D9F750
:101580003EF490958095709561957F4F8F4F9F4F5A
:101590000895E89409C097FB3EF490958095709566
:1015A00061957F4F8F4F9F4F9923A9F0F92F96E9AF
:1015B000BB279395F695879577956795B795F11124
:1015C000F8CFFAF4BB0F11F460FF1BC06F5F7F4FC1
:1015D0008F4F9F4F16C0882311F096E911C07723D3
:1015E00021F09EE8872F762F05C0662371F096E8DC
:1015F000862F70E060E02AF09A95660F771F881FAB
:10160000DAF7880F9695879597F9089597F99F6768
:1016100080E870E060E008959FEF80EC089500247A
:101620000A941616170618060906089500240A9447
:1016300012161306140605060895092E0394000CCD
:1016400011F4882352F0BB0F40F4BF2B11F460FF5C
:1016500004C06F5F7F4F8F4F9F4F089557FD905885
:10166000440F551F59F05F3F71F04795880F97FB66
:10167000991F61F09F3F79F0879508951216130620
:101680001406551FF2CF4695F1DF08C0161617064F
:101690001806991FF1CF8695710561050894089584
:1016A000E894BB2766277727CB0197F90895A1E235
:1016B0001A2EAA1BBB1BFD010DC0AA1FBB1FEE1FCC
:1016C000FF1FA217B307E407F50720F0A21BB30B17
:1016D000E40BF50B661F771F881F991F1A9469F793
:1016E00060957095809590959B01AC01BD01CF01EF
:1016F0000895EE0FFF1F0590F491E02D099481E00D
:0C17000090E0F8940C94840BF894FFCF58
:10170C00FFFFFFFF00E100000000000000000000F0
:10171C008004F403E304A104BF04960400C1808197
:10172C000000000D0A0053544F50004D6F76696E47
:0A173C006720666F77617264000099
:00000001FF
