:020000020000FC
:1000000000000000000002E0009300020AE00093FC
:100010000102C6EFD1E2CDBFDEBFE0E0F0E0059126
:10002000159109831A83E2E0F0E0059115910B83A5
:100030001C8310E01D83E4E0F0E0059115910E8330
:100040001F8302E012E00887198729813A814091D5
:100050000102421728F1E885F985E20FF31F20839A
:1000600050910002622F0E9453008E839F83E88785
:10007000F987829F202C312C929F412C300C08F460
:100080004394AB81BC811D8100E0A20DB31D141D02
:10009000AB83BC831D8301E010E0200F311FD9CF5B
:1000A000AB83BC8345C0CF93DF93CDB7DEB7289732
:1000B000CDBFDEBF00E059830A836B830C832F938F
:1000C0003F934F935F936F937F93AF93BF9311E0F1
:1000D0001D830E831F830887A981BA812B813C81F0
:1000E0004D815E816F8178852417350788F08F8177
:1000F00098858A9F202C312C9A9F412C300C08F433
:1001000043942F82388601E010E0400F511FECCF5E
:10011000BF91AF917F916F915F914F913F912F91DF
:100120008F8198852896DEBFCDBFDF91CF9108954E
:020130000000CD
:00000001FF
