:020000020000FC
:1000000000000100000003E0009300020AE00093FA
:100010000102C7EFD1E2CDBFDEBF00E010E00983EF
:100020001A8301E010E00B831C8300E010E00D83D5
:100030001E8302E012E00F83188729813A814091E4
:100040000102421760F0EF81F885E20FF31F208371
:1000500050910002622F0E942F002395F2CFCF9380
:10006000DF930F931F932F933F93CDB7DEB72A975C
:10007000CDBFDEBF59836A8300E00B8301E010E04F
:100080000C831D830B812C813D814A81401710F028
:060090000395FCCF000007
:00000001FF
