:020000020000FC
:1000000000000100000003E0009300020AE00093FA
:100010000102C7EFD1E2CDBFDEBF00E010E00983EF
:100020001A8300E010E00B831C8300E010E00D83D6
:100030001E8302E012E00F83188729813A814091E4
:100040000102AB81BC814217E8F0EF81F885E20F35
:10005000F31F208350910002622F0E9445008D8380
:100060009E83829F202C312C929F412C300C08F4CF
:100070004394A20DB31DAB83BC8301E010E0200FBD
:10008000311FE1CFAB83BC8345C0CF93DF93CDB7A6
:10009000DEB72897CDBFDEBF00E059830A836B83AC
:1000A0000C832F933F934F935F936F937F93AF9303
:1000B000BF9311E01D830E831F830887A981BA8136
:1000C0002B813C814D815E816F81788524173507B6
:1000D00088F08F8198858A9F202C312C9A9F412C03
:1000E000300C08F443942F82388601E010E0400F72
:1000F000511FECCFBF91AF917F916F915F914F9165
:100100003F912F918F8198852896DEBFCDBFDF91DB
:06011000CF9108950000EC
:00000001FF
